:1000000000ED0AB900EC0BB900E50CBD00E40BB93A
:1000100024E13FEF3A95F1F72A95D9F700EC0BB9B7
:1000200024E13FEF3A95F1F72A95D9F700E80BB9AB
:100030000EEA0EBD1DB517FFFDCF05ED0EBD1DB5BA
:1000400017FFFDCF00E80EBD1DB517FFFDCF08EA75
:100050000EBD1DB517FFFDCF0FE30EBD1DB517FF7C
:10006000FDCF03ED0EBD1DB517FFFDCF00E00EBDAA
:100070001DB517FFFDCF00E40EBD1DB517FFFDCF69
:100080000DE80EBD1DB517FFFDCF04E10EBD1DB57A
:1000900017FFFDCF00E20EBD1DB517FFFDCF00E03D
:1000A0000EBD1DB517FFFDCF01E20EBD1DB517FF3B
:1000B000FDCF00E00EBD1DB517FFFDCF0FE70EBD54
:1000C0001DB517FFFDCF02E20EBD1DB517FFFDCF19
:1000D00000E00EBD1DB517FFFDCF07E00EBD1DB53D
:1000E00017FFFDCF01EA0EBD1DB517FFFDCF08ECD0
:1000F0000EBD1DB517FFFDCF0AED0EBD1DB517FFD7
:10010000FDCF02E10EBD1DB517FFFDCF01E80EBD0D
:100110001DB517FFFDCF0FEC0EBD1DB517FFFDCFB1
:1001200009ED0EBD1DB517FFFDCF01EF0EBD1DB5CD
:1001300017FFFDCF0BED0EBD1DB517FFFDCF00E482
:100140000EBD1DB517FFFDCF04EA0EBD1DB517FF8F
:10015000FDCF06EA0EBD1DB517FFFDCF0FEA0EBDA0
:100160001DB517FFFDCF00E90BB90FEF0EBD1DB593
:1001700017FFFDCF01E00EBD1DB517FFFDCF01E05C
:100180000EBD1DB517FFFDCF01E00EBD1DB517FF5C
:10019000FDCF01E00EBD1DB517FFFDCF01E00EBD87
:1001A0001DB517FFFDCF01E00EBD1DB517FFFDCF3B
:1001B00001E00EBD1DB517FFFDCF01E00EBD1DB561
:1001C00017FFFDCF01E00EBD1DB517FFFDCF01E00C
:1001D0000EBD1DB517FFFDCF01E00EBD1DB517FF0C
:1001E000FDCF01E00EBD1DB517FFFDCF01E00EBD37
:1001F0001DB517FFFDCF01E00EBD1DB517FFFDCFEB
:1002000001E00EBD1DB517FFFDCF01E00EBD1DB510
:1002100017FFFDCF01E00EBD1DB517FFFDCF01E0BB
:100220000EBD1DB517FFFDCF01E00EBD1DB517FFBB
:10023000FDCF01E00EBD1DB517FFFDCF01E00EBDE6
:100240001DB517FFFDCF01E00EBD1DB517FFFDCF9A
:1002500001E00EBD1DB517FFFDCF01E00EBD1DB5C0
:1002600017FFFDCF01E00EBD1DB517FFFDCF01E06B
:100270000EBD1DB517FFFDCF01E00EBD1DB517FF6B
:10028000FDCF01E00EBD1DB517FFFDCF01E00EBD96
:100290001DB517FFFDCF01E00EBD1DB517FFFDCF4A
:1002A00001E00EBD1DB517FFFDCF01E00EBD1DB570
:1002B00017FFFDCF01E00EBD1DB517FFFDCF01E01B
:1002C0000EBD1DB517FFFDCF01E00EBD1DB517FF1B
:1002D000FDCF01E00EBD1DB517FFFDCF01E00EBD46
:1002E0001DB517FFFDCF01E00EBD1DB517FFFDCFFA
:1002F00001E00EBD1DB517FFFDCF01E00EBD1DB520
:1003000017FFFDCF01E00EBD1DB517FFFDCF01E0CA
:100310000EBD1DB517FFFDCF01E00EBD1DB517FFCA
:10032000FDCF01E00EBD1DB517FFFDCF01E00EBDF5
:100330001DB517FFFDCF01E00EBD1DB517FFFDCFA9
:1003400001E00EBD1DB517FFFDCF01E00EBD1DB5CF
:1003500017FFFDCF01E00EBD1DB517FFFDCF01E07A
:100360000EBD1DB517FFFDCF01E00EBD1DB517FF7A
:10037000FDCF01E00EBD1DB517FFFDCF01E00EBDA5
:100380001DB517FFFDCF01E00EBD1DB517FFFDCF59
:1003900001E00EBD1DB517FFFDCF01E00EBD1DB57F
:1003A00017FFFDCF01E00EBD1DB517FFFDCF01E02A
:1003B0000EBD1DB517FFFDCF01E00EBD1DB517FF2A
:1003C000FDCF01E00EBD1DB517FFFDCF01E00EBD55
:1003D0001DB517FFFDCF01E00EBD1DB517FFFDCF09
:1003E00001E00EBD1DB517FFFDCF01E00EBD1DB52F
:1003F00017FFFDCF01E00EBD1DB517FFFDCF01E0DA
:100400000EBD1DB517FFFDCF01E00EBD1DB517FFD9
:10041000FDCF01E00EBD1DB517FFFDCF01E00EBD04
:100420001DB517FFFDCF01E00EBD1DB517FFFDCFB8
:1004300001E00EBD1DB517FFFDCF01E00EBD1DB5DE
:1004400017FFFDCF01E00EBD1DB517FFFDCF01E089
:100450000EBD1DB517FFFDCF01E00EBD1DB517FF89
:10046000FDCF01E00EBD1DB517FFFDCF01E00EBDB4
:100470001DB517FFFDCF01E00EBD1DB517FFFDCF68
:1004800001E00EBD1DB517FFFDCF01E00EBD1DB58E
:1004900017FFFDCF01E00EBD1DB517FFFDCF01E039
:1004A0000EBD1DB517FFFDCF01E00EBD1DB517FF39
:1004B000FDCF01E00EBD1DB517FFFDCF01E00EBD64
:1004C0001DB517FFFDCF01E00EBD1DB517FFFDCF18
:1004D00001E00EBD1DB517FFFDCF01E00EBD1DB53E
:1004E00017FFFDCF01E00EBD1DB517FFFDCF01E0E9
:1004F0000EBD1DB517FFFDCF01E00EBD1DB517FFE9
:10050000FDCF01E00EBD1DB517FFFDCF01E00EBD13
:100510001DB517FFFDCF01E00EBD1DB517FFFDCFC7
:1005200001E00EBD1DB517FFFDCF01E00EBD1DB5ED
:1005300017FFFDCF01E00EBD1DB517FFFDCF01E098
:100540000EBD1DB517FFFDCF01E00EBD1DB517FF98
:10055000FDCF01E00EBD1DB517FFFDCF01E00EBDC3
:100560001DB517FFFDCF01E00EBD1DB517FFFDCF77
:1005700001E00EBD1DB517FFFDCF01E00EBD1DB59D
:1005800017FFFDCF01E00EBD1DB517FFFDCF01E048
:100590000EBD1DB517FFFDCF01E00EBD1DB517FF48
:1005A000FDCF01E00EBD1DB517FFFDCF01E00EBD73
:1005B0001DB517FFFDCF01E00EBD1DB517FFFDCF27
:1005C00001E00EBD1DB517FFFDCF01E00EBD1DB54D
:1005D00017FFFDCF01E00EBD1DB517FFFDCF01E0F8
:1005E0000EBD1DB517FFFDCF01E00EBD1DB517FFF8
:1005F000FDCF01E00EBD1DB517FFFDCF01E00EBD23
:100600001DB517FFFDCF01E00EBD1DB517FFFDCFD6
:1006100001E00EBD1DB517FFFDCF01E00EBD1DB5FC
:1006200017FFFDCF01E00EBD1DB517FFFDCF01E0A7
:100630000EBD1DB517FFFDCF01E00EBD1DB517FFA7
:10064000FDCF01E00EBD1DB517FFFDCF01E00EBDD2
:100650001DB517FFFDCF01E00EBD1DB517FFFDCF86
:100660000FEF0EBD1DB517FFFDCF0FEF0EBD1DB572
:1006700017FFFDCF00E00EBD1DB517FFFDCF00E059
:100680000EBD1DB517FFFDCF00E00EBD1DB517FF58
:10069000FDCF00E00EBD1DB517FFFDCF00E00EBD84
:1006A0001DB517FFFDCF00E00EBD1DB517FFFDCF37
:1006B00000E00EBD1DB517FFFDCF00E00EBD1DB55E
:1006C00017FFFDCF00E00EBD1DB517FFFDCF00E009
:1006D0000EBD1DB517FFFDCF00E00EBD1DB517FF08
:1006E000FDCF00E00EBD1DB517FFFDCF00E00EBD34
:1006F0001DB517FFFDCF00E00EBD1DB517FFFDCFE7
:1007000000E00EBD1DB517FFFDCF00E00EBD1DB50D
:1007100017FFFDCF00E00EBD1DB517FFFDCF00E0B8
:100720000EBD1DB517FFFDCF00E00EBD1DB517FFB7
:10073000FDCF00E00EBD1DB517FFFDCF00E00EBDE3
:100740001DB517FFFDCF00E00EBD1DB517FFFDCF96
:1007500000E00EBD1DB517FFFDCF00E00EBD1DB5BD
:1007600017FFFDCF00E00EBD1DB517FFFDCF00E068
:100770000EBD1DB517FFFDCF00E00EBD1DB517FF67
:10078000FDCF00E00EBD1DB517FFFDCF00E00EBD93
:100790001DB517FFFDCF00E00EBD1DB517FFFDCF46
:1007A00000E00EBD1DB517FFFDCF00E00EBD1DB56D
:1007B00017FFFDCF00E00EBD1DB517FFFDCF00E018
:1007C0000EBD1DB517FFFDCF00E00EBD1DB517FF17
:1007D000FDCF00E00EBD1DB517FFFDCF00E00EBD43
:1007E0001DB517FFFDCF00E00EBD1DB517FFFDCFF6
:1007F00000E00EBD1DB517FFFDCF00E00EBD1DB51D
:1008000017FFFDCF00E00EBD1DB517FFFDCF00E0C7
:100810000EBD1DB517FFFDCF00E00EBD1DB517FFC6
:10082000FDCF00E00EBD1DB517FFFDCF00E00EBDF2
:100830001DB517FFFDCF00E00EBD1DB517FFFDCFA5
:1008400000E00EBD1DB517FFFDCF00E00EBD1DB5CC
:1008500017FFFDCF00E00EBD1DB517FFFDCF00E077
:100860000EBD1DB517FFFDCF00E00EBD1DB517FF76
:10087000FDCF00E00EBD1DB517FFFDCF00E00EBDA2
:100880001DB517FFFDCF00E00EBD1DB517FFFDCF55
:1008900000E00EBD1DB517FFFDCF00E00EBD1DB57C
:1008A00017FFFDCF00E00EBD1DB517FFFDCF00E027
:1008B0000EBD1DB517FFFDCF00E00EBD1DB517FF26
:1008C000FDCF00E00EBD1DB517FFFDCF00E00EBD52
:1008D0001DB517FFFDCF00E00EBD1DB517FFFDCF05
:1008E00000E00EBD1DB517FFFDCF00E00EBD1DB52C
:1008F00017FFFDCF00E00EBD1DB517FFFDCF00E0D7
:100900000EBD1DB517FFFDCF00E00EBD1DB517FFD5
:10091000FDCF00E00EBD1DB517FFFDCF00E00EBD01
:100920001DB517FFFDCF00E00EBD1DB517FFFDCFB4
:1009300000E00EBD1DB517FFFDCF00E00EBD1DB5DB
:1009400017FFFDCF00E00EBD1DB517FFFDCF00E086
:100950000EBD1DB517FFFDCF00E00EBD1DB517FF85
:10096000FDCF00E00EBD1DB517FFFDCF00E00EBDB1
:100970001DB517FFFDCF00E00EBD1DB517FFFDCF64
:1009800000E00EBD1DB517FFFDCF00E00EBD1DB58B
:1009900017FFFDCF00E00EBD1DB517FFFDCF00E036
:1009A0000EBD1DB517FFFDCF00E00EBD1DB517FF35
:1009B000FDCF00E00EBD1DB517FFFDCF00E00EBD61
:1009C0001DB517FFFDCF00E00EBD1DB517FFFDCF14
:1009D00000E00EBD1DB517FFFDCF00E00EBD1DB53B
:1009E00017FFFDCF00E00EBD1DB517FFFDCF00E0E6
:1009F0000EBD1DB517FFFDCF00E00EBD1DB517FFE5
:100A0000FDCF00E00EBD1DB517FFFDCF00E00EBD10
:100A10001DB517FFFDCF00E00EBD1DB517FFFDCFC3
:100A200000E00EBD1DB517FFFDCF00E00EBD1DB5EA
:100A300017FFFDCF00E00EBD1DB517FFFDCF00E095
:100A40000EBD1DB517FFFDCF00E00EBD1DB517FF94
:100A5000FDCF00E00EBD1DB517FFFDCF00E00EBDC0
:100A60001DB517FFFDCF00E00EBD1DB517FFFDCF73
:100A700000E00EBD1DB517FFFDCF00E00EBD1DB59A
:100A800017FFFDCF00E00EBD1DB517FFFDCF00E045
:100A90000EBD1DB517FFFDCF00E00EBD1DB517FF44
:100AA000FDCF00E00EBD1DB517FFFDCF00E00EBD70
:100AB0001DB517FFFDCF00E00EBD1DB517FFFDCF23
:100AC00000E00EBD1DB517FFFDCF00E00EBD1DB54A
:100AD00017FFFDCF00E00EBD1DB517FFFDCF00E0F5
:100AE0000EBD1DB517FFFDCF00E00EBD1DB517FFF4
:100AF000FDCF00E00EBD1DB517FFFDCF00E00EBD20
:100B00001DB517FFFDCF00E00EBD1DB517FFFDCFD2
:100B100000E00EBD1DB517FFFDCF00E00EBD1DB5F9
:100B200017FFFDCF00E00EBD1DB517FFFDCF00E0A4
:100B30000EBD1DB517FFFDCF00E00EBD1DB517FFA3
:100B4000FDCF00E00EBD1DB517FFFDCF00E00EBDCF
:100B50001DB517FFFDCF00E00EBD1DB517FFFDCF82
:100B60000FEF0EBD1DB517FFFDCF0FEF0EBD1DB56D
:100B700017FFFDCF00E00EBD1DB517FFFDCF00E054
:100B80000EBD1DB517FFFDCF00E00EBD1DB517FF53
:100B9000FDCF00E00EBD1DB517FFFDCF00E00EBD7F
:100BA0001DB517FFFDCF00E00EBD1DB517FFFDCF32
:100BB00000E00EBD1DB517FFFDCF00E00EBD1DB559
:100BC00017FFFDCF00E00EBD1DB517FFFDCF00E004
:100BD0000EBD1DB517FFFDCF00E00EBD1DB517FF03
:100BE000FDCF00E00EBD1DB517FFFDCF00E00EBD2F
:100BF0001DB517FFFDCF00E00EBD1DB517FFFDCFE2
:100C000000E00EBD1DB517FFFDCF00E00EBD1DB508
:100C100017FFFDCF00E00EBD1DB517FFFDCF00E0B3
:100C20000EBD1DB517FFFDCF00E00EBD1DB517FFB2
:100C3000FDCF00E00EBD1DB517FFFDCF00E00EBDDE
:100C40001DB517FFFDCF00E00EBD1DB517FFFDCF91
:100C500000E00EBD1DB517FFFDCF00E00EBD1DB5B8
:100C600017FFFDCF00E00EBD1DB517FFFDCF00E063
:100C70000EBD1DB517FFFDCF00E00EBD1DB517FF62
:100C8000FDCF00E00EBD1DB517FFFDCF00E00EBD8E
:100C90001DB517FFFDCF00E00EBD1DB517FFFDCF41
:100CA00000E00EBD1DB517FFFDCF00E00EBD1DB568
:100CB00017FFFDCF00E00EBD1DB517FFFDCF00E013
:100CC0000EBD1DB517FFFDCF00E00EBD1DB517FF12
:100CD000FDCF00E00EBD1DB517FFFDCF00E00EBD3E
:100CE0001DB517FFFDCF00E00EBD1DB517FFFDCFF1
:100CF00000E00EBD1DB517FFFDCF00E00EBD1DB518
:100D000017FFFDCF00E00EBD1DB517FFFDCF00E0C2
:100D10000EBD1DB517FFFDCF00E00EBD1DB517FFC1
:100D2000FDCF00E00EBD1DB517FFFDCF00E00EBDED
:100D30001DB517FFFDCF00E00EBD1DB517FFFDCFA0
:100D400000E00EBD1DB517FFFDCF00E00EBD1DB5C7
:100D500017FFFDCF00E00EBD1DB517FFFDCF00E072
:100D60000EBD1DB517FFFDCF00E00EBD1DB517FF71
:100D7000FDCF00E00EBD1DB517FFFDCF00E00EBD9D
:100D80001DB517FFFDCF00E00EBD1DB517FFFDCF50
:100D900000E00EBD1DB517FFFDCF00E00EBD1DB577
:100DA00017FFFDCF00E00EBD1DB517FFFDCF00E022
:100DB0000EBD1DB517FFFDCF00E00EBD1DB517FF21
:100DC000FDCF00E00EBD1DB517FFFDCF00E00EBD4D
:100DD0001DB517FFFDCF00E00EBD1DB517FFFDCF00
:100DE00000E00EBD1DB517FFFDCF00E00EBD1DB527
:100DF00017FFFDCF00E00EBD1DB517FFFDCF00E0D2
:100E00000EBD1DB517FFFDCF00E00EBD1DB517FFD0
:100E1000FDCF00E00EBD1DB517FFFDCF00E00EBDFC
:100E20001DB517FFFDCF00E00EBD1DB517FFFDCFAF
:100E300000E00EBD1DB517FFFDCF00E00EBD1DB5D6
:100E400017FFFDCF00E00EBD1DB517FFFDCF00E081
:100E50000EBD1DB517FFFDCF00E00EBD1DB517FF80
:100E6000FDCF00E00EBD1DB517FFFDCF00E00EBDAC
:100E70001DB517FFFDCF00E00EBD1DB517FFFDCF5F
:100E800000E00EBD1DB517FFFDCF00E00EBD1DB586
:100E900017FFFDCF00E00EBD1DB517FFFDCF00E031
:100EA0000EBD1DB517FFFDCF00E00EBD1DB517FF30
:100EB000FDCF00E00EBD1DB517FFFDCF00E00EBD5C
:100EC0001DB517FFFDCF00E00EBD1DB517FFFDCF0F
:100ED00000E00EBD1DB517FFFDCF00E00EBD1DB536
:100EE00017FFFDCF00E00EBD1DB517FFFDCF00E0E1
:100EF0000EBD1DB517FFFDCF00E00EBD1DB517FFE0
:100F0000FDCF00E00EBD1DB517FFFDCF00E00EBD0B
:100F10001DB517FFFDCF00E00EBD1DB517FFFDCFBE
:100F200000E00EBD1DB517FFFDCF00E00EBD1DB5E5
:100F300017FFFDCF00E00EBD1DB517FFFDCF00E090
:100F40000EBD1DB517FFFDCF00E00EBD1DB517FF8F
:100F5000FDCF00E00EBD1DB517FFFDCF00E00EBDBB
:100F60001DB517FFFDCF00E00EBD1DB517FFFDCF6E
:100F700000E00EBD1DB517FFFDCF00E00EBD1DB595
:100F800017FFFDCF00E00EBD1DB517FFFDCF00E040
:100F90000EBD1DB517FFFDCF00E00EBD1DB517FF3F
:100FA000FDCF00E00EBD1DB517FFFDCF00E00EBD6B
:100FB0001DB517FFFDCF00E00EBD1DB517FFFDCF1E
:100FC00000E00EBD1DB517FFFDCF00E00EBD1DB545
:100FD00017FFFDCF00E00EBD1DB517FFFDCF00E0F0
:100FE0000EBD1DB517FFFDCF00E00EBD1DB517FFEF
:100FF000FDCF00E00EBD1DB517FFFDCF00E00EBD1B
:101000001DB517FFFDCF00E00EBD1DB517FFFDCFCD
:1010100000E00EBD1DB517FFFDCF00E00EBD1DB5F4
:1010200017FFFDCF00E00EBD1DB517FFFDCF00E09F
:101030000EBD1DB517FFFDCF00E00EBD1DB517FF9E
:10104000FDCF00E00EBD1DB517FFFDCF00E00EBDCA
:101050001DB517FFFDCF00E00EBD1DB517FFFDCF7D
:101060000FEF0EBD1DB517FFFDCF0FEF0EBD1DB568
:1010700017FFFDCF00E00EBD1DB517FFFDCF00E04F
:101080000EBD1DB517FFFDCF00E00EBD1DB517FF4E
:10109000FDCF00E00EBD1DB517FFFDCF00E00EBD7A
:1010A0001DB517FFFDCF00E00EBD1DB517FFFDCF2D
:1010B00000E00EBD1DB517FFFDCF00E00EBD1DB554
:1010C00017FFFDCF00E00EBD1DB517FFFDCF00E0FF
:1010D0000EBD1DB517FFFDCF00E00EBD1DB517FFFE
:1010E000FDCF00E00EBD1DB517FFFDCF00E00EBD2A
:1010F0001DB517FFFDCF00E00EBD1DB517FFFDCFDD
:1011000000E00EBD1DB517FFFDCF00E00EBD1DB503
:1011100017FFFDCF00E00EBD1DB517FFFDCF00E0AE
:101120000EBD1DB517FFFDCF00E00EBD1DB517FFAD
:10113000FDCF00E00EBD1DB517FFFDCF00E00EBDD9
:101140001DB517FFFDCF00E00EBD1DB517FFFDCF8C
:1011500000E00EBD1DB517FFFDCF00E00EBD1DB5B3
:1011600017FFFDCF00E00EBD1DB517FFFDCF00E05E
:101170000EBD1DB517FFFDCF00E00EBD1DB517FF5D
:10118000FDCF0FE70EBD1DB517FFFDCF08E00EBD6B
:101190001DB517FFFDCF08E00EBD1DB517FFFDCF34
:1011A00008E00EBD1DB517FFFDCF0FE70EBD1DB545
:1011B00017FFFDCF00E00EBD1DB517FFFDCF0FE7F8
:1011C0000EBD1DB517FFFDCF09E40EBD1DB517FF00
:1011D000FDCF09E40EBD1DB517FFFDCF09E40EBD1F
:1011E0001DB517FFFDCF01E40EBD1DB517FFFDCFE7
:1011F00000E00EBD1DB517FFFDCF0FE70EBD1DB5FD
:1012000017FFFDCF00E40EBD1DB517FFFDCF00E4B5
:101210000EBD1DB517FFFDCF00E40EBD1DB517FFB8
:10122000FDCF00E40EBD1DB517FFFDCF00E00EBDE4
:101230001DB517FFFDCF0FE70EBD1DB517FFFDCF85
:1012400000E40EBD1DB517FFFDCF00E40EBD1DB5BA
:1012500017FFFDCF00E40EBD1DB517FFFDCF00E465
:101260000EBD1DB517FFFDCF00E00EBD1DB517FF6C
:10127000FDCF0EE30EBD1DB517FFFDCF01E40EBD82
:101280001DB517FFFDCF01E40EBD1DB517FFFDCF46
:1012900001E40EBD1DB517FFFDCF0EE30EBD1DB55C
:1012A00017FFFDCF00E00EBD1DB517FFFDCF00E01D
:1012B0000EBD1DB517FFFDCF00E00EBD1DB517FF1C
:1012C000FDCF00E00EBD1DB517FFFDCF00E00EBD48
:1012D0001DB517FFFDCF00E00EBD1DB517FFFDCFFB
:1012E00000E00EBD1DB517FFFDCF0FE70EBD1DB50C
:1012F00017FFFDCF00E20EBD1DB517FFFDCF08E1C2
:101300000EBD1DB517FFFDCF00E20EBD1DB517FFC9
:10131000FDCF0FE70EBD1DB517FFFDCF00E00EBDE1
:101320001DB517FFFDCF0EE30EBD1DB517FFFDCF99
:1013300001E40EBD1DB517FFFDCF01E40EBD1DB5C7
:1013400017FFFDCF01E40EBD1DB517FFFDCF0EE366
:101350000EBD1DB517FFFDCF00E00EBD1DB517FF7B
:10136000FDCF0FE70EBD1DB517FFFDCF09E00EBD88
:101370001DB517FFFDCF09E10EBD1DB517FFFDCF50
:1013800009E20EBD1DB517FFFDCF06E40EBD1DB56C
:1013900017FFFDCF00E00EBD1DB517FFFDCF0FE716
:1013A0000EBD1DB517FFFDCF00E40EBD1DB517FF27
:1013B000FDCF00E40EBD1DB517FFFDCF00E40EBD4F
:1013C0001DB517FFFDCF00E40EBD1DB517FFFDCF06
:1013D00000E00EBD1DB517FFFDCF0FE70EBD1DB51B
:1013E00017FFFDCF01E40EBD1DB517FFFDCF01E4D2
:1013F0000EBD1DB517FFFDCF02E20EBD1DB517FFD7
:10140000FDCF0CE10EBD1DB517FFFDCF00E00EBDF9
:101410001DB517FFFDCF00E00EBD1DB517FFFDCFB9
:1014200000E00EBD1DB517FFFDCF0FE50EBD1DB5CC
:1014300017FFFDCF00E00EBD1DB517FFFDCF00E08B
:101440000EBD1DB517FFFDCF00E00EBD1DB517FF8A
:10145000FDCF00E00EBD1DB517FFFDCF00E00EBDB6
:101460001DB517FFFDCF00E00EBD1DB517FFFDCF69
:1014700000E00EBD1DB517FFFDCF00E00EBD1DB590
:1014800017FFFDCF00E00EBD1DB517FFFDCF00E03B
:101490000EBD1DB517FFFDCF00E00EBD1DB517FF3A
:1014A000FDCF00E00EBD1DB517FFFDCF00E00EBD66
:1014B0001DB517FFFDCF00E00EBD1DB517FFFDCF19
:1014C00000E00EBD1DB517FFFDCF00E00EBD1DB540
:1014D00017FFFDCF00E00EBD1DB517FFFDCF00E0EB
:1014E0000EBD1DB517FFFDCF00E00EBD1DB517FFEA
:1014F000FDCF00E00EBD1DB517FFFDCF00E00EBD16
:101500001DB517FFFDCF00E00EBD1DB517FFFDCFC8
:1015100000E00EBD1DB517FFFDCF00E00EBD1DB5EF
:1015200017FFFDCF00E00EBD1DB517FFFDCF00E09A
:101530000EBD1DB517FFFDCF00E00EBD1DB517FF99
:10154000FDCF00E00EBD1DB517FFFDCF00E00EBDC5
:101550001DB517FFFDCF00E00EBD1DB517FFFDCF78
:101560000FEF0EBD1DB517FFFDCF0FEF0EBD1DB563
:1015700017FFFDCF00E00EBD1DB517FFFDCF00E04A
:101580000EBD1DB517FFFDCF00E00EBD1DB517FF49
:10159000FDCF00E00EBD1DB517FFFDCF00E00EBD75
:1015A0001DB517FFFDCF00E00EBD1DB517FFFDCF28
:1015B00000E00EBD1DB517FFFDCF00E00EBD1DB54F
:1015C00017FFFDCF00E00EBD1DB517FFFDCF00E0FA
:1015D0000EBD1DB517FFFDCF00E00EBD1DB517FFF9
:1015E000FDCF00E00EBD1DB517FFFDCF00E00EBD25
:1015F0001DB517FFFDCF00E00EBD1DB517FFFDCFD8
:1016000000E00EBD1DB517FFFDCF00E00EBD1DB5FE
:1016100017FFFDCF00E00EBD1DB517FFFDCF00E0A9
:101620000EBD1DB517FFFDCF00E00EBD1DB517FFA8
:10163000FDCF00E00EBD1DB517FFFDCF00E00EBDD4
:101640001DB517FFFDCF00E00EBD1DB517FFFDCF87
:1016500000E00EBD1DB517FFFDCF00E00EBD1DB5AE
:1016600017FFFDCF00E00EBD1DB517FFFDCF00E059
:101670000EBD1DB517FFFDCF00E00EBD1DB517FF58
:10168000FDCF00E00EBD1DB517FFFDCF00E00EBD84
:101690001DB517FFFDCF00E00EBD1DB517FFFDCF37
:1016A00000E00EBD1DB517FFFDCF00E00EBD1DB55E
:1016B00017FFFDCF00E00EBD1DB517FFFDCF00E009
:1016C0000EBD1DB517FFFDCF00E00EBD1DB517FF08
:1016D000FDCF00E00EBD1DB517FFFDCF00E00EBD34
:1016E0001DB517FFFDCF00E00EBD1DB517FFFDCFE7
:1016F00000E00EBD1DB517FFFDCF00E00EBD1DB50E
:1017000017FFFDCF00E00EBD1DB517FFFDCF00E0B8
:101710000EBD1DB517FFFDCF00E00EBD1DB517FFB7
:10172000FDCF00E00EBD1DB517FFFDCF00E00EBDE3
:101730001DB517FFFDCF00E00EBD1DB517FFFDCF96
:1017400000E00EBD1DB517FFFDCF00E00EBD1DB5BD
:1017500017FFFDCF00E00EBD1DB517FFFDCF00E068
:101760000EBD1DB517FFFDCF00E00EBD1DB517FF67
:10177000FDCF00E00EBD1DB517FFFDCF00E00EBD93
:101780001DB517FFFDCF00E00EBD1DB517FFFDCF46
:1017900000E00EBD1DB517FFFDCF00E00EBD1DB56D
:1017A00017FFFDCF00E00EBD1DB517FFFDCF00E018
:1017B0000EBD1DB517FFFDCF00E00EBD1DB517FF17
:1017C000FDCF00E00EBD1DB517FFFDCF00E00EBD43
:1017D0001DB517FFFDCF00E00EBD1DB517FFFDCFF6
:1017E00000E00EBD1DB517FFFDCF00E00EBD1DB51D
:1017F00017FFFDCF00E00EBD1DB517FFFDCF00E0C8
:101800000EBD1DB517FFFDCF00E00EBD1DB517FFC6
:10181000FDCF00E00EBD1DB517FFFDCF00E00EBDF2
:101820001DB517FFFDCF00E00EBD1DB517FFFDCFA5
:1018300000E00EBD1DB517FFFDCF00E00EBD1DB5CC
:1018400017FFFDCF00E00EBD1DB517FFFDCF00E077
:101850000EBD1DB517FFFDCF00E00EBD1DB517FF76
:10186000FDCF00E00EBD1DB517FFFDCF00E00EBDA2
:101870001DB517FFFDCF00E00EBD1DB517FFFDCF55
:1018800000E00EBD1DB517FFFDCF00E00EBD1DB57C
:1018900017FFFDCF00E00EBD1DB517FFFDCF00E027
:1018A0000EBD1DB517FFFDCF00E00EBD1DB517FF26
:1018B000FDCF00E00EBD1DB517FFFDCF00E00EBD52
:1018C0001DB517FFFDCF00E00EBD1DB517FFFDCF05
:1018D00000E00EBD1DB517FFFDCF00E00EBD1DB52C
:1018E00017FFFDCF00E00EBD1DB517FFFDCF00E0D7
:1018F0000EBD1DB517FFFDCF00E00EBD1DB517FFD6
:10190000FDCF00E00EBD1DB517FFFDCF00E00EBD01
:101910001DB517FFFDCF00E00EBD1DB517FFFDCFB4
:1019200000E00EBD1DB517FFFDCF00E00EBD1DB5DB
:1019300017FFFDCF00E00EBD1DB517FFFDCF00E086
:101940000EBD1DB517FFFDCF00E00EBD1DB517FF85
:10195000FDCF00E00EBD1DB517FFFDCF00E00EBDB1
:101960001DB517FFFDCF00E00EBD1DB517FFFDCF64
:1019700000E00EBD1DB517FFFDCF00E00EBD1DB58B
:1019800017FFFDCF00E00EBD1DB517FFFDCF00E036
:101990000EBD1DB517FFFDCF00E00EBD1DB517FF35
:1019A000FDCF00E00EBD1DB517FFFDCF00E00EBD61
:1019B0001DB517FFFDCF00E00EBD1DB517FFFDCF14
:1019C00000E00EBD1DB517FFFDCF00E00EBD1DB53B
:1019D00017FFFDCF00E00EBD1DB517FFFDCF00E0E6
:1019E0000EBD1DB517FFFDCF00E00EBD1DB517FFE5
:1019F000FDCF00E00EBD1DB517FFFDCF00E00EBD11
:101A00001DB517FFFDCF00E00EBD1DB517FFFDCFC3
:101A100000E00EBD1DB517FFFDCF00E00EBD1DB5EA
:101A200017FFFDCF00E00EBD1DB517FFFDCF00E095
:101A30000EBD1DB517FFFDCF00E00EBD1DB517FF94
:101A4000FDCF00E00EBD1DB517FFFDCF00E00EBDC0
:101A50001DB517FFFDCF00E00EBD1DB517FFFDCF73
:101A60000FEF0EBD1DB517FFFDCF0FEF0EBD1DB55E
:101A700017FFFDCF00E00EBD1DB517FFFDCF00E045
:101A80000EBD1DB517FFFDCF00E00EBD1DB517FF44
:101A9000FDCF00E00EBD1DB517FFFDCF00E00EBD70
:101AA0001DB517FFFDCF00E00EBD1DB517FFFDCF23
:101AB00000E00EBD1DB517FFFDCF00E00EBD1DB54A
:101AC00017FFFDCF00E00EBD1DB517FFFDCF00E0F5
:101AD0000EBD1DB517FFFDCF00E00EBD1DB517FFF4
:101AE000FDCF00E00EBD1DB517FFFDCF00E00EBD20
:101AF0001DB517FFFDCF00E00EBD1DB517FFFDCFD3
:101B000000E00EBD1DB517FFFDCF00E00EBD1DB5F9
:101B100017FFFDCF00E00EBD1DB517FFFDCF00E0A4
:101B20000EBD1DB517FFFDCF00E00EBD1DB517FFA3
:101B3000FDCF00E00EBD1DB517FFFDCF00E00EBDCF
:101B40001DB517FFFDCF00E00EBD1DB517FFFDCF82
:101B500000E00EBD1DB517FFFDCF00E00EBD1DB5A9
:101B600017FFFDCF00E00EBD1DB517FFFDCF00E054
:101B70000EBD1DB517FFFDCF00E00EBD1DB517FF53
:101B8000FDCF00E00EBD1DB517FFFDCF00E00EBD7F
:101B90001DB517FFFDCF00E00EBD1DB517FFFDCF32
:101BA00000E00EBD1DB517FFFDCF00E00EBD1DB559
:101BB00017FFFDCF00E00EBD1DB517FFFDCF00E004
:101BC0000EBD1DB517FFFDCF00E00EBD1DB517FF03
:101BD000FDCF00E00EBD1DB517FFFDCF00E00EBD2F
:101BE0001DB517FFFDCF00E00EBD1DB517FFFDCFE2
:101BF00000E00EBD1DB517FFFDCF00E00EBD1DB509
:101C000017FFFDCF00E00EBD1DB517FFFDCF00E0B3
:101C10000EBD1DB517FFFDCF00E00EBD1DB517FFB2
:101C2000FDCF00E00EBD1DB517FFFDCF00E00EBDDE
:101C30001DB517FFFDCF00E00EBD1DB517FFFDCF91
:101C400000E00EBD1DB517FFFDCF00E00EBD1DB5B8
:101C500017FFFDCF00E00EBD1DB517FFFDCF00E063
:101C60000EBD1DB517FFFDCF00E00EBD1DB517FF62
:101C7000FDCF00E00EBD1DB517FFFDCF00E00EBD8E
:101C80001DB517FFFDCF00E00EBD1DB517FFFDCF41
:101C900000E00EBD1DB517FFFDCF00E00EBD1DB568
:101CA00017FFFDCF00E00EBD1DB517FFFDCF00E013
:101CB0000EBD1DB517FFFDCF00E00EBD1DB517FF12
:101CC000FDCF00E00EBD1DB517FFFDCF00E00EBD3E
:101CD0001DB517FFFDCF00E00EBD1DB517FFFDCFF1
:101CE00000E00EBD1DB517FFFDCF00E00EBD1DB518
:101CF00017FFFDCF00E00EBD1DB517FFFDCF00E0C3
:101D00000EBD1DB517FFFDCF00E00EBD1DB517FFC1
:101D1000FDCF00E00EBD1DB517FFFDCF00E00EBDED
:101D20001DB517FFFDCF00E00EBD1DB517FFFDCFA0
:101D300000E00EBD1DB517FFFDCF00E00EBD1DB5C7
:101D400017FFFDCF00E00EBD1DB517FFFDCF00E072
:101D50000EBD1DB517FFFDCF00E00EBD1DB517FF71
:101D6000FDCF00E00EBD1DB517FFFDCF00E00EBD9D
:101D70001DB517FFFDCF00E00EBD1DB517FFFDCF50
:101D800000E00EBD1DB517FFFDCF00E00EBD1DB577
:101D900017FFFDCF00E00EBD1DB517FFFDCF00E022
:101DA0000EBD1DB517FFFDCF00E00EBD1DB517FF21
:101DB000FDCF00E00EBD1DB517FFFDCF00E00EBD4D
:101DC0001DB517FFFDCF00E00EBD1DB517FFFDCF00
:101DD00000E00EBD1DB517FFFDCF00E00EBD1DB527
:101DE00017FFFDCF00E00EBD1DB517FFFDCF00E0D2
:101DF0000EBD1DB517FFFDCF00E00EBD1DB517FFD1
:101E0000FDCF00E00EBD1DB517FFFDCF00E00EBDFC
:101E10001DB517FFFDCF00E00EBD1DB517FFFDCFAF
:101E200000E00EBD1DB517FFFDCF00E00EBD1DB5D6
:101E300017FFFDCF00E00EBD1DB517FFFDCF00E081
:101E40000EBD1DB517FFFDCF00E00EBD1DB517FF80
:101E5000FDCF00E00EBD1DB517FFFDCF00E00EBDAC
:101E60001DB517FFFDCF00E00EBD1DB517FFFDCF5F
:101E700000E00EBD1DB517FFFDCF00E00EBD1DB586
:101E800017FFFDCF00E00EBD1DB517FFFDCF00E031
:101E90000EBD1DB517FFFDCF00E00EBD1DB517FF30
:101EA000FDCF00E00EBD1DB517FFFDCF00E00EBD5C
:101EB0001DB517FFFDCF00E00EBD1DB517FFFDCF0F
:101EC00000E00EBD1DB517FFFDCF00E00EBD1DB536
:101ED00017FFFDCF00E00EBD1DB517FFFDCF00E0E1
:101EE0000EBD1DB517FFFDCF00E00EBD1DB517FFE0
:101EF000FDCF00E00EBD1DB517FFFDCF00E00EBD0C
:101F00001DB517FFFDCF00E00EBD1DB517FFFDCFBE
:101F100000E00EBD1DB517FFFDCF00E00EBD1DB5E5
:101F200017FFFDCF00E00EBD1DB517FFFDCF00E090
:101F30000EBD1DB517FFFDCF00E00EBD1DB517FF8F
:101F4000FDCF00E00EBD1DB517FFFDCF00E00EBDBB
:101F50001DB517FFFDCF00E00EBD1DB517FFFDCF6E
:101F60000FEF0EBD1DB517FFFDCF0FEF0EBD1DB559
:101F700017FFFDCF00E00EBD1DB517FFFDCF00E040
:101F80000EBD1DB517FFFDCF00E00EBD1DB517FF3F
:101F9000FDCF00E00EBD1DB517FFFDCF00E00EBD6B
:101FA0001DB517FFFDCF00E00EBD1DB517FFFDCF1E
:101FB00000E00EBD1DB517FFFDCF00E00EBD1DB545
:101FC00017FFFDCF00E00EBD1DB517FFFDCF00E0F0
:101FD0000EBD1DB517FFFDCF00E00EBD1DB517FFEF
:101FE000FDCF00E00EBD1DB517FFFDCF00E00EBD1B
:101FF0001DB517FFFDCF00E00EBD1DB517FFFDCFCE
:1020000000E00EBD1DB517FFFDCF00E00EBD1DB5F4
:1020100017FFFDCF00E00EBD1DB517FFFDCF00E09F
:102020000EBD1DB517FFFDCF00E00EBD1DB517FF9E
:10203000FDCF00E00EBD1DB517FFFDCF00E00EBDCA
:102040001DB517FFFDCF00E00EBD1DB517FFFDCF7D
:1020500000E00EBD1DB517FFFDCF00E00EBD1DB5A4
:1020600017FFFDCF00E00EBD1DB517FFFDCF00E04F
:102070000EBD1DB517FFFDCF00E00EBD1DB517FF4E
:10208000FDCF00E00EBD1DB517FFFDCF00E00EBD7A
:102090001DB517FFFDCF00E00EBD1DB517FFFDCF2D
:1020A00000E00EBD1DB517FFFDCF00E00EBD1DB554
:1020B00017FFFDCF00E00EBD1DB517FFFDCF00E0FF
:1020C0000EBD1DB517FFFDCF00E00EBD1DB517FFFE
:1020D000FDCF00E00EBD1DB517FFFDCF00E00EBD2A
:1020E0001DB517FFFDCF00E00EBD1DB517FFFDCFDD
:1020F00000E00EBD1DB517FFFDCF00E00EBD1DB504
:1021000017FFFDCF00E00EBD1DB517FFFDCF00E0AE
:102110000EBD1DB517FFFDCF00E00EBD1DB517FFAD
:10212000FDCF00E00EBD1DB517FFFDCF00E00EBDD9
:102130001DB517FFFDCF00E00EBD1DB517FFFDCF8C
:1021400000E00EBD1DB517FFFDCF00E00EBD1DB5B3
:1021500017FFFDCF00E00EBD1DB517FFFDCF00E05E
:102160000EBD1DB517FFFDCF00E00EBD1DB517FF5D
:10217000FDCF00E00EBD1DB517FFFDCF00E00EBD89
:102180001DB517FFFDCF00E00EBD1DB517FFFDCF3C
:1021900000E00EBD1DB517FFFDCF00E00EBD1DB563
:1021A00017FFFDCF00E00EBD1DB517FFFDCF00E00E
:1021B0000EBD1DB517FFFDCF00E00EBD1DB517FF0D
:1021C000FDCF00E00EBD1DB517FFFDCF00E00EBD39
:1021D0001DB517FFFDCF00E00EBD1DB517FFFDCFEC
:1021E00000E00EBD1DB517FFFDCF00E00EBD1DB513
:1021F00017FFFDCF00E00EBD1DB517FFFDCF00E0BE
:102200000EBD1DB517FFFDCF00E00EBD1DB517FFBC
:10221000FDCF00E00EBD1DB517FFFDCF00E00EBDE8
:102220001DB517FFFDCF00E00EBD1DB517FFFDCF9B
:1022300000E00EBD1DB517FFFDCF00E00EBD1DB5C2
:1022400017FFFDCF00E00EBD1DB517FFFDCF00E06D
:102250000EBD1DB517FFFDCF00E00EBD1DB517FF6C
:10226000FDCF00E00EBD1DB517FFFDCF00E00EBD98
:102270001DB517FFFDCF00E00EBD1DB517FFFDCF4B
:1022800000E00EBD1DB517FFFDCF00E00EBD1DB572
:1022900017FFFDCF00E00EBD1DB517FFFDCF00E01D
:1022A0000EBD1DB517FFFDCF00E00EBD1DB517FF1C
:1022B000FDCF00E00EBD1DB517FFFDCF00E00EBD48
:1022C0001DB517FFFDCF00E00EBD1DB517FFFDCFFB
:1022D00000E00EBD1DB517FFFDCF00E00EBD1DB522
:1022E00017FFFDCF00E00EBD1DB517FFFDCF00E0CD
:1022F0000EBD1DB517FFFDCF00E00EBD1DB517FFCC
:10230000FDCF00E00EBD1DB517FFFDCF00E00EBDF7
:102310001DB517FFFDCF00E00EBD1DB517FFFDCFAA
:1023200000E00EBD1DB517FFFDCF00E00EBD1DB5D1
:1023300017FFFDCF00E00EBD1DB517FFFDCF00E07C
:102340000EBD1DB517FFFDCF00E00EBD1DB517FF7B
:10235000FDCF00E00EBD1DB517FFFDCF00E00EBDA7
:102360001DB517FFFDCF00E00EBD1DB517FFFDCF5A
:1023700000E00EBD1DB517FFFDCF00E00EBD1DB581
:1023800017FFFDCF00E00EBD1DB517FFFDCF00E02C
:102390000EBD1DB517FFFDCF00E00EBD1DB517FF2B
:1023A000FDCF00E00EBD1DB517FFFDCF00E00EBD57
:1023B0001DB517FFFDCF00E00EBD1DB517FFFDCF0A
:1023C00000E00EBD1DB517FFFDCF00E00EBD1DB531
:1023D00017FFFDCF00E00EBD1DB517FFFDCF00E0DC
:1023E0000EBD1DB517FFFDCF00E00EBD1DB517FFDB
:1023F000FDCF00E00EBD1DB517FFFDCF00E00EBD07
:102400001DB517FFFDCF00E00EBD1DB517FFFDCFB9
:1024100000E00EBD1DB517FFFDCF00E00EBD1DB5E0
:1024200017FFFDCF00E00EBD1DB517FFFDCF00E08B
:102430000EBD1DB517FFFDCF00E00EBD1DB517FF8A
:10244000FDCF00E00EBD1DB517FFFDCF00E00EBDB6
:102450001DB517FFFDCF00E00EBD1DB517FFFDCF69
:102460000FEF0EBD1DB517FFFDCF0FEF0EBD1DB554
:1024700017FFFDCF00E80EBD1DB517FFFDCF00E82B
:102480000EBD1DB517FFFDCF00E80EBD1DB517FF32
:10249000FDCF00E80EBD1DB517FFFDCF00E80EBD56
:1024A0001DB517FFFDCF00E80EBD1DB517FFFDCF11
:1024B00000E80EBD1DB517FFFDCF00E80EBD1DB530
:1024C00017FFFDCF00E80EBD1DB517FFFDCF00E8DB
:1024D0000EBD1DB517FFFDCF00E80EBD1DB517FFE2
:1024E000FDCF00E80EBD1DB517FFFDCF00E80EBD06
:1024F0001DB517FFFDCF00E80EBD1DB517FFFDCFC1
:1025000000E80EBD1DB517FFFDCF00E80EBD1DB5DF
:1025100017FFFDCF00E80EBD1DB517FFFDCF00E88A
:102520000EBD1DB517FFFDCF00E80EBD1DB517FF91
:10253000FDCF00E80EBD1DB517FFFDCF00E80EBDB5
:102540001DB517FFFDCF00E80EBD1DB517FFFDCF70
:1025500000E80EBD1DB517FFFDCF00E80EBD1DB58F
:1025600017FFFDCF00E80EBD1DB517FFFDCF00E83A
:102570000EBD1DB517FFFDCF00E80EBD1DB517FF41
:10258000FDCF00E80EBD1DB517FFFDCF00E80EBD65
:102590001DB517FFFDCF00E80EBD1DB517FFFDCF20
:1025A00000E80EBD1DB517FFFDCF00E80EBD1DB53F
:1025B00017FFFDCF00E80EBD1DB517FFFDCF00E8EA
:1025C0000EBD1DB517FFFDCF00E80EBD1DB517FFF1
:1025D000FDCF00E80EBD1DB517FFFDCF00E80EBD15
:1025E0001DB517FFFDCF00E80EBD1DB517FFFDCFD0
:1025F00000E80EBD1DB517FFFDCF00E80EBD1DB5EF
:1026000017FFFDCF00E80EBD1DB517FFFDCF00E899
:102610000EBD1DB517FFFDCF00E80EBD1DB517FFA0
:10262000FDCF00E80EBD1DB517FFFDCF00E80EBDC4
:102630001DB517FFFDCF00E80EBD1DB517FFFDCF7F
:1026400000E80EBD1DB517FFFDCF00E80EBD1DB59E
:1026500017FFFDCF00E80EBD1DB517FFFDCF00E849
:102660000EBD1DB517FFFDCF00E80EBD1DB517FF50
:10267000FDCF00E80EBD1DB517FFFDCF00E80EBD74
:102680001DB517FFFDCF00E80EBD1DB517FFFDCF2F
:1026900000E80EBD1DB517FFFDCF00E80EBD1DB54E
:1026A00017FFFDCF00E80EBD1DB517FFFDCF00E8F9
:1026B0000EBD1DB517FFFDCF00E80EBD1DB517FF00
:1026C000FDCF00E80EBD1DB517FFFDCF00E80EBD24
:1026D0001DB517FFFDCF00E80EBD1DB517FFFDCFDF
:1026E00000E80EBD1DB517FFFDCF00E80EBD1DB5FE
:1026F00017FFFDCF00E80EBD1DB517FFFDCF00E8A9
:102700000EBD1DB517FFFDCF00E80EBD1DB517FFAF
:10271000FDCF00E80EBD1DB517FFFDCF00E80EBDD3
:102720001DB517FFFDCF00E80EBD1DB517FFFDCF8E
:1027300000E80EBD1DB517FFFDCF00E80EBD1DB5AD
:1027400017FFFDCF00E80EBD1DB517FFFDCF00E858
:102750000EBD1DB517FFFDCF00E80EBD1DB517FF5F
:10276000FDCF00E80EBD1DB517FFFDCF00E80EBD83
:102770001DB517FFFDCF00E80EBD1DB517FFFDCF3E
:1027800000E80EBD1DB517FFFDCF00E80EBD1DB55D
:1027900017FFFDCF00E80EBD1DB517FFFDCF00E808
:1027A0000EBD1DB517FFFDCF00E80EBD1DB517FF0F
:1027B000FDCF00E80EBD1DB517FFFDCF00E80EBD33
:1027C0001DB517FFFDCF00E80EBD1DB517FFFDCFEE
:1027D00000E80EBD1DB517FFFDCF00E80EBD1DB50D
:1027E00017FFFDCF00E80EBD1DB517FFFDCF00E8B8
:1027F0000EBD1DB517FFFDCF00E80EBD1DB517FFBF
:10280000FDCF00E80EBD1DB517FFFDCF00E80EBDE2
:102810001DB517FFFDCF00E80EBD1DB517FFFDCF9D
:1028200000E80EBD1DB517FFFDCF00E80EBD1DB5BC
:1028300017FFFDCF00E80EBD1DB517FFFDCF00E867
:102840000EBD1DB517FFFDCF00E80EBD1DB517FF6E
:10285000FDCF00E80EBD1DB517FFFDCF00E80EBD92
:102860001DB517FFFDCF00E80EBD1DB517FFFDCF4D
:1028700000E80EBD1DB517FFFDCF00E80EBD1DB56C
:1028800017FFFDCF00E80EBD1DB517FFFDCF00E817
:102890000EBD1DB517FFFDCF00E80EBD1DB517FF1E
:1028A000FDCF00E80EBD1DB517FFFDCF00E80EBD42
:1028B0001DB517FFFDCF00E80EBD1DB517FFFDCFFD
:1028C00000E80EBD1DB517FFFDCF00E80EBD1DB51C
:1028D00017FFFDCF00E80EBD1DB517FFFDCF00E8C7
:1028E0000EBD1DB517FFFDCF00E80EBD1DB517FFCE
:1028F000FDCF00E80EBD1DB517FFFDCF00E80EBDF2
:102900001DB517FFFDCF00E80EBD1DB517FFFDCFAC
:1029100000E80EBD1DB517FFFDCF00E80EBD1DB5CB
:1029200017FFFDCF00E80EBD1DB517FFFDCF00E876
:102930000EBD1DB517FFFDCF00E80EBD1DB517FF7D
:10294000FDCF00E80EBD1DB517FFFDCF00E80EBDA1
:102950001DB517FFFDCF00E80EBD1DB517FFFDCF5C
:0C2960000FEF0EBD1DB517FFFDCFFFCF20
:00000001FF
